:100000009CC00000B5C00000B3C00000B1C000003B
:10001000AFC00000ADC00000ABC00000A9C0000030
:10002000A7C00000A5C00000A3C0000025C40000B8
:10003000CAC400009DC000009BC0000099C0000021
:1000400097C0000095C0000093C0000091C0000060
:100050008FC000008DC000008BC00000E2C1000016
:1000600087C0000085C0000083C0000081C0000080
:100070007FC000007DC000007BC0000079C0000090
:1000800077C0000075C0000073C0000071C00000A0
:100090006FC000006DC000001201100102000008D6
:1000A000EB034B2001000102DC0109023E000201CA
:1000B00000C0320904000001020201000524000111
:1000C0001004240206052406000107058203080027
:1000D000FF09040100020A000000070504024000B5
:1000E00001070583024000010403090432034100B3
:1000F00072006400750069006E006F002000280027
:100100007700770077002E006100720064007500B0
:1001100069006E006F002E0063006300290000007C
:100120001803410072006400750069006E006F00E2
:10013000200055006E006F00000011241FBECFEF9D
:10014000D2E0DEBFCDBF11E0A0E0B1E0E0E2F0E13F
:1001500002C005900D92A831B107D9F712E0A8E1CD
:10016000B1E001C01D92A133B107E1F728D056C715
:1001700047CF84B7877F84BF28E10FB6F8942093D8
:100180006000109260000FBE87E690E09093CD0073
:100190008093CC0086E08093CA001092C800209320
:1001A000C900539A5A9A8AB180638AB98BB1806325
:1001B0008BB957D384E085BD5F9A579A0895CF9243
:1001C000DF92EF92FF920F931F93D3DF8FB7F894D4
:1001D00020EA31E030932102209320023093230261
:1001E000209322028FBF4FB7F8948BE191E0909358
:1001F0009C0180939B0190939E0180939D014FBF32
:100200007894122F032FE82ED92E83E0F82E9FB773
:10021000F894809124029FBF803811F180E091E032
:10022000AFD697FD1DC0E0912002F091210280839E
:10023000E0912002F0912102CF01019690932102DA
:100240008093200222E08032920711F4118302830E
:100250009FB7F894809124028F5F809324029FBF00
:100260008FB7F894C0909F018FBFA89904C08C2DC0
:10027000813608F444C0A89A80919F01882309F12F
:100280005D98F09218011DC0E0919D01F0919E01D2
:100290006191F0939E01E0939D0121E0EB39F2071B
:1002A00021F4E0929D01D0929E019FB7F894809135
:1002B0009F01815080939F019FBF80E091E0F9D51D
:1002C000CA94CC2009F780911801882351F08091BD
:1002D000180181508093180180911801882309F436
:1002E0005D9A80911901882351F080911901815004
:1002F0008093190180911901882309F45C9A9FB7B2
:10030000F894809124029FBF882311F1E09122028A
:10031000F09123029191F0932302E093220282E074
:10032000E032F80721F410932202009323022FB742
:10033000F894809124028150809324022FBF8091F1
:10034000C80085FFFCCF9093CE005C98F092190115
:1003500080E091E006D6D8D45ACF80E091E070C515
:1003600080E091E003C51F93CF93DF93EC01EC890C
:10037000E150E23028F4F0E0EA5EFE4F108101C067
:1003800010E08B89823009F418608D89873031F054
:10039000883031F0863029F4126003C0146001C047
:1003A00016601092C9001092C8001092CA002F85E2
:1003B000388949895A89203081EE380780E048071A
:1003C00080E0580771F0CA01B90196958795779535
:1003D000679560587B47814E9F4FFED52150304036
:1003E00002C020E130E03093CD002093CC00109388
:1003F000CA008F859889A989BA89803021EE920731
:1004000020E0A20720E0B20711F480E001C082E002
:100410008093C80088E98093C900DF91CF911F9134
:1004200008951F920F920FB60F9211242F938F935E
:100430009F93EF93FF938091CE009EB39430F9F495
:10044000E0919B01F0919C018083E0919B01F091F0
:100450009C01CF01019690939C0180939B0121E028
:100460008B39920721F48BE191E0928381839FB7CE
:10047000F89480919F018F5F80939F019FBFFF91B0
:10048000EF919F918F912F910F900FBE0F901F9022
:100490001895FC01858580FF02C05F9808955F9ADA
:1004A0000895923029F0933041F09130E9F417C06B
:1004B0002EE330E0EAEAF0E01BC0813041F0813009
:1004C00018F0823089F406C0E8EEF0E005C0ECEEEA
:1004D000F0E002C0E0E2F1E0249130E009C022E166
:1004E00030E0E8E9F0E004C020E030E0E0E0F0E0F7
:1004F000DA011196FC93EE93C901089528E030E0EB
:1005000040E003C04F5F220F331F28173907D0F395
:10051000842F8295807F08958093E900EBEEF0E0D0
:10052000808181608083EDEEF0E010826093EC00CA
:1005300040838091EE00881F8827881F08951092BD
:10054000F40080E08093E9001092F0001092E8003F
:100550001092ED009091EB009E7F9093EB008F5FE7
:10056000853081F708958091290287FF11C003C06B
:100570008EB38823B1F08091E80082FFF9CF80919B
:10058000E8008B778093E80008958EB3882349F0C4
:100590008091E80080FFF9CF8091E8008E7780930A
:1005A000E800089584E69091EC0090FF05C09091DA
:1005B000E80090FF05C01BC09091E80092FD17C0B5
:1005C0009EB39923B1F09EB39530A9F09091EB00C2
:1005D00095FD13C09091E10092FFE5CF9091E1006D
:1005E0009B7F9093E100882351F08150DCCF80E025
:1005F000089582E0089583E0089581E0089584E0FD
:100600000895282F392FF90180912F0290913002FF
:100610008617970718F4BC0190E032C06115710588
:10062000D9F78091E8008E778093E800F5CF80912C
:10063000E80083FD37C08091E80082FD2DC08EB3B5
:100640008823A1F18EB3853079F18091E80080FF95
:1006500017C08091F20006C091919093F100615013
:1006600070408F5F6115710511F08830A8F391E03B
:10067000883009F090E08091E8008E778093E80060
:1006800061157105A1F6992391F606C08EB38823F2
:1006900069F08EB3853061F08091E80082FFF6CF7B
:1006A00080E0089581E0089583E0089582E0089550
:1006B00083E00895282F392FC90120912F0230910E
:1006C00030022617370718F4B90130E034C061153D
:1006D0007105D9F72091E8002E772093E800F5CF37
:1006E0002091E80023FD39C02091E80022FD2FC0B1
:1006F0002EB32223B1F12EB3253089F12091E800E9
:1007000020FF19C02091F20008C0FC010196E4917D
:10071000E093F100615070402F5F6115710511F099
:10072000283098F331E0283009F030E02091E800DB
:100730002E772093E8006115710591F6332381F639
:1007400006C08EB3882369F08EB3853061F0809146
:10075000E80082FFF6CF80E0089581E0089583E00D
:10076000089582E0089583E008956115710519F5F3
:100770001DC02091E80023FD2EC02EB3222379F165
:100780002EB3253051F12091E80022FFF2CFE82F5F
:10079000F92F07C08091F1008193CF016150704023
:1007A00029F0CF012091F2002223A1F72091E80047
:1007B0002B772093E80061157105D9F606C08EB33A
:1007C000882369F08EB3853061F08091E80080FF66
:1007D000F6CF80E0089581E0089583E0089582E0F7
:1007E000089583E0089542D044D01EBA10922702A3
:1007F000109226021092250284E089BD89B582609C
:1008000089BD09B400FEFDCF8091D800982F9F7755
:100810009093D80080688093D800809163008E7F89
:10082000809363008091D8008F7D8093D800809161
:10083000E0008E7F8093E0008091E1008E7F8093C6
:10084000E1008091E20081608093E2008091E1000C
:10085000877F8093E1008091E20088608093E200CE
:100860000895C1DF81E08093280208951092E2008C
:1008700008951092E10008951F920F920FB60F9203
:1008800011242F933F934F935F936F937F938F9395
:100890009F93AF93BF93EF93FF938091E10080FF0D
:1008A0001BC08091E20080FF17C08091E1008E7F25
:1008B0008093E1008091E2008E7F8093E20080913E
:1008C000E20080618093E2008091D8008062809392
:1008D000D80019BC1EBA17D28091E10084FF29C04C
:1008E0008091E20084FF25C084E089BD89B58260E3
:1008F00089BD09B400FEFDCF8091D8008F7D809323
:10090000D8008091E1008F7E8093E1008091E20029
:100910008F7E8093E2008091E20081608093E2000C
:1009200080912702882311F084E001C081E08EBB12
:10093000EAD18091E10083FF27C08091E20083FF2C
:1009400023C08091E100877F8093E10082E08EBB2D
:10095000109227028091E1008E7F8093E1008091C8
:10096000E2008E7F8093E2008091E20080618093BC
:10097000E200E5DD80E060E042E0CEDD8091F00065
:1009800088608093F000BFD18091E10082FF0AC0AF
:100990008091E20082FF06C08091E1008B7F80930E
:1009A000E100B1D1FF91EF91BF91AF919F918F91F4
:1009B0007F916F915F914F913F912F910F900FBE5B
:1009C0000F901F9018951F920F920FB60F9211243F
:1009D000EF92FF920F931F932F933F934F935F9349
:1009E0006F937F938F939F93AF93BF93EF93FF93F7
:1009F000DF93CF930F92CDB7DEB789EEE82EF12CBF
:100A0000F70180818770108200EF10E0F80190817B
:100A1000977F90837894898322D0F894F70110828D
:100A2000F8019081986090838981F70180830F900D
:100A3000CF91DF91FF91EF91BF91AF919F918F91F6
:100A40007F916F915F914F913F912F911F910F91E6
:100A5000FF90EF900F900FBE0F901F9018951F936F
:100A6000DF93CF93CDB7DEB7AC970FB6F894DEBF68
:100A70000FBECDBFE9E2F2E08091F100819322E068
:100A8000E133F207C9F78091290220912A0225302B
:100A900009F484C0263040F42130A1F1213070F0F7
:100AA000233009F017C12EC0283009F4E9C02930DD
:100AB00009F4F8C0263009F00DC18EC0803821F04D
:100AC000823809F007C108C0809125029091260262
:100AD000992371F082600CC080912D028770809301
:100AE000E9009091EB0081E095FF80E01092E90031
:100AF0009091E800977F9093E8008093F100109226
:100B0000F100C9C0882319F0823009F0E3C090E0F9
:100B10008F719070009729F08230910509F0DBC049
:100B20000BC080912B02813009F0D5C0233009F031
:100B300080E0809326022CC080912B02882341F50F
:100B400020912D02277009F4C6C02093E9008091FE
:100B5000EB0080FFC0C080912A02833021F4809195
:100B6000EB00806213C08091EB0080618093EB000A
:100B700081E090E002C0880F991F2A95E2F78093E8
:100B8000EA001092EA008091EB0088608093EB000D
:100B90001092E9008091E800877F80C0882309F0E7
:100BA00099C010912B028091E800877F8093E80024
:100BB000DADC04C08EB3882309F48DC08091E8008C
:100BC00080FFF8CF1F7711F083E001C082E08EBB79
:100BD00010681093E3007FC08058823008F07AC01C
:100BE00080912B0290912C0223E08C3D920789F595
:100BF00083E08C838AE28B833FB7F894DE011596FD
:100C000080E090E02EE041E2E22FF0E040935700D8
:100C1000E49180FF03C0E295EF702F5FEF705E2FCD
:100C2000505D5A3308F0595F5C9311961C921197EE
:100C3000129601968431910539F73FBF8091E80003
:100C4000877F8093E800CE0103966AE270E0D9DCEA
:100C500011C060912D02AE014F5F5F4F22DCBC01DD
:100C60000097C9F18091E800877F8093E80089812F
:100C70009A8120DD8091E8008B778093E8002BC07B
:100C8000803841F58091E800877F8093E80080916B
:100C900027028093F1008091E8008E778093E8002E
:100CA00062DC19C08823B1F490912B02923098F441
:100CB0008091E800877F8093E8009093270253DCBF
:100CC00080912702882311F084E001C083E08EBB6D
:100CD00044DB01C045DB8091E80083FF0AC08091BE
:100CE000EB0080628093EB008091E800877F809327
:100CF000E800AC960FB6F894DEBF0FBECDBFCF9123
:100D0000DF911F91089508951F938EB3882361F09A
:100D10001091E90017701092E9008091E80083FFBC
:100D200001C09DDE1093E9001F910895FF920F937B
:100D30001F93DF93CF930F92CDB7DEB7182FF42E0A
:100D4000C9016983DBDB69816295660F660F607C90
:100D50006F29402F4260482B812FDEDB0F90CF910F
:100D6000DF911F910F91FF9008950895CF93DF9326
:100D7000EC018091E80083FF60C0888190E02091C1
:100D80002D0230912E022817390709F056C08091A4
:100D90002A02813261F0823220F4803209F04DC0A3
:100DA00019C0823269F1833209F047C038C080919E
:100DB0002902813A09F041C08091E800877F809341
:100DC000E800CE010F9667E070E01BDC8091E80040
:100DD0008B7713C080912902813279F58091E800E8
:100DE000877F8093E800CE010F9667E070E0BDDC5E
:100DF000CE01B9DA8091E8008E778093E8001DC0BB
:100E0000809129028132C9F48091E800877F809324
:100E1000E80080912B028D87CE013BDB0DC08091D5
:100E20002902813251F48091E800877F8093E800A5
:100E3000CE0160912B0299DF96DBDF91CF9108956F
:100E40000F93CF93DF93EC010D96FC0189E0DF0156
:100E50001D928A95E9F72A813B8189819C8199239A
:100E600011F004E001C000E062E041E05FDF8130AA
:100E7000D9F42E813F818D819885992311F004E06A
:100E800001C000E062E040E051DF813069F42A8572
:100E90003B8589859C85992311F004E001C000E021
:100EA00063E041E043DF01C080E0DF91CF910F912B
:100EB0000895DF93CF930F92CDB7DEB7FC018EB3C9
:100EC0008430F1F427853089418952892115310513
:100ED00041055105A9F081818093E9008091E800E6
:100EE00085FD0AC08091E8008E778093E8006983D1
:100EF00059DB6981882329F46093F10080E001C007
:100F000082E00F90CF91DF910895FC018EB3843081
:100F100011F527853089418952892115310541050F
:100F20005105C9F081818093E9008091F200882306
:100F3000A1F09091E8008091E8008E778093E8001E
:100F400095FD0DC02FDB882359F49091E8009E7722
:100F50009093E800089582E0089580E0089580E08D
:100F600008952EB3243059F4FC0127853089418936
:100F70005289211531054105510509F0C6CF089563
:100F8000FC018EB3843021F527853089418952894F
:100F90002115310541055105D9F085818093E9007E
:100FA0008091E80082FF14C08091F200882321F034
:100FB0002091F10030E002C02FEF3FEF8091F2006E
:100FC000882341F48091E8008B778093E80002C089
:100FD0002FEF3FEFC9010895A1E21A2EAA1BBB1BF8
:100FE000FD010DC0AA1FBB1FEE1FFF1FA217B307F5
:100FF000E407F50720F0A21BB30BE40BF50B661F0B
:10100000771F881F991F1A9469F7609570958095CE
:1010100090959B01AC01BD01CF010895F894FFCFDD
:10102000000340000004400000020800000000002F
:08103000000000000000302068
:00000001FF
